{
  "_format": "hh-sol-artifact-1",
  "contractName": "VRFManagerV2PlusFixed",
  "sourceName": "contracts/current/core/VRFManagerV2PlusFixed.sol",
  "abi": [
    {
      "inputs": [
        {
          "internalType": "address",
          "name": "_wrapperAddress",
          "type": "address"
        }
      ],
      "stateMutability": "nonpayable",
      "type": "constructor"
    },
    {
      "inputs": [
        {
          "internalType": "address",
          "name": "have",
          "type": "address"
        },
        {
          "internalType": "address",
          "name": "want",
          "type": "address"
        }
      ],
      "name": "OnlyVRFWrapperCanFulfill",
      "type": "error"
    },
    {
      "inputs": [
        {
          "internalType": "address",
          "name": "owner",
          "type": "address"
        }
      ],
      "name": "OwnableInvalidOwner",
      "type": "error"
    },
    {
      "inputs": [
        {
          "internalType": "address",
          "name": "account",
          "type": "address"
        }
      ],
      "name": "OwnableUnauthorizedAccount",
      "type": "error"
    },
    {
      "inputs": [],
      "name": "ReentrancyGuardReentrantCall",
      "type": "error"
    },
    {
      "anonymous": false,
      "inputs": [
        {
          "indexed": true,
          "internalType": "address",
          "name": "contract_",
          "type": "address"
        },
        {
          "indexed": false,
          "internalType": "bool",
          "name": "authorized",
          "type": "bool"
        }
      ],
      "name": "AuthorizationUpdated",
      "type": "event"
    },
    {
      "anonymous": false,
      "inputs": [
        {
          "indexed": true,
          "internalType": "address",
          "name": "previousOwner",
          "type": "address"
        },
        {
          "indexed": true,
          "internalType": "address",
          "name": "newOwner",
          "type": "address"
        }
      ],
      "name": "OwnershipTransferred",
      "type": "event"
    },
    {
      "anonymous": false,
      "inputs": [
        {
          "indexed": false,
          "internalType": "uint256",
          "name": "newFee",
          "type": "uint256"
        }
      ],
      "name": "PlatformFeeUpdated",
      "type": "event"
    },
    {
      "anonymous": false,
      "inputs": [
        {
          "indexed": true,
          "internalType": "uint256",
          "name": "requestId",
          "type": "uint256"
        },
        {
          "indexed": false,
          "internalType": "uint256[]",
          "name": "randomWords",
          "type": "uint256[]"
        }
      ],
      "name": "RandomFulfilled",
      "type": "event"
    },
    {
      "anonymous": false,
      "inputs": [
        {
          "indexed": true,
          "internalType": "uint256",
          "name": "requestId",
          "type": "uint256"
        },
        {
          "indexed": true,
          "internalType": "address",
          "name": "requester",
          "type": "address"
        },
        {
          "indexed": false,
          "internalType": "enum IVRFManager.RequestType",
          "name": "requestType",
          "type": "uint8"
        }
      ],
      "name": "RandomRequested",
      "type": "event"
    },
    {
      "anonymous": false,
      "inputs": [
        {
          "indexed": false,
          "internalType": "uint256",
          "name": "newPrice",
          "type": "uint256"
        }
      ],
      "name": "VRFPriceUpdated",
      "type": "event"
    },
    {
      "inputs": [
        {
          "internalType": "address",
          "name": "contract_",
          "type": "address"
        }
      ],
      "name": "authorizeContract",
      "outputs": [],
      "stateMutability": "nonpayable",
      "type": "function"
    },
    {
      "inputs": [
        {
          "internalType": "address",
          "name": "",
          "type": "address"
        }
      ],
      "name": "authorizedContracts",
      "outputs": [
        {
          "internalType": "bool",
          "name": "",
          "type": "bool"
        }
      ],
      "stateMutability": "view",
      "type": "function"
    },
    {
      "inputs": [],
      "name": "callbackGasLimit",
      "outputs": [
        {
          "internalType": "uint32",
          "name": "",
          "type": "uint32"
        }
      ],
      "stateMutability": "view",
      "type": "function"
    },
    {
      "inputs": [],
      "name": "getBalance",
      "outputs": [
        {
          "internalType": "uint256",
          "name": "",
          "type": "uint256"
        }
      ],
      "stateMutability": "view",
      "type": "function"
    },
    {
      "inputs": [],
      "name": "getLinkToken",
      "outputs": [
        {
          "internalType": "contract LinkTokenInterface",
          "name": "",
          "type": "address"
        }
      ],
      "stateMutability": "view",
      "type": "function"
    },
    {
      "inputs": [
        {
          "internalType": "address",
          "name": "user",
          "type": "address"
        }
      ],
      "name": "getRandomForUser",
      "outputs": [
        {
          "internalType": "bool",
          "name": "fulfilled",
          "type": "bool"
        },
        {
          "internalType": "uint256[]",
          "name": "randomWords",
          "type": "uint256[]"
        }
      ],
      "stateMutability": "view",
      "type": "function"
    },
    {
      "inputs": [
        {
          "internalType": "uint256",
          "name": "requestId",
          "type": "uint256"
        }
      ],
      "name": "getRequestStatus",
      "outputs": [
        {
          "internalType": "bool",
          "name": "fulfilled",
          "type": "bool"
        },
        {
          "internalType": "uint256[]",
          "name": "randomWords",
          "type": "uint256[]"
        }
      ],
      "stateMutability": "view",
      "type": "function"
    },
    {
      "inputs": [],
      "name": "getTotalFee",
      "outputs": [
        {
          "internalType": "uint256",
          "name": "",
          "type": "uint256"
        }
      ],
      "stateMutability": "view",
      "type": "function"
    },
    {
      "inputs": [],
      "name": "getVrfRequestPrice",
      "outputs": [
        {
          "internalType": "uint256",
          "name": "",
          "type": "uint256"
        }
      ],
      "stateMutability": "view",
      "type": "function"
    },
    {
      "inputs": [],
      "name": "i_vrfV2PlusWrapper",
      "outputs": [
        {
          "internalType": "contract IVRFV2PlusWrapper",
          "name": "",
          "type": "address"
        }
      ],
      "stateMutability": "view",
      "type": "function"
    },
    {
      "inputs": [
        {
          "internalType": "address",
          "name": "_contract",
          "type": "address"
        }
      ],
      "name": "isAuthorized",
      "outputs": [
        {
          "internalType": "bool",
          "name": "",
          "type": "bool"
        }
      ],
      "stateMutability": "view",
      "type": "function"
    },
    {
      "inputs": [],
      "name": "owner",
      "outputs": [
        {
          "internalType": "address",
          "name": "",
          "type": "address"
        }
      ],
      "stateMutability": "view",
      "type": "function"
    },
    {
      "inputs": [],
      "name": "platformFee",
      "outputs": [
        {
          "internalType": "uint256",
          "name": "",
          "type": "uint256"
        }
      ],
      "stateMutability": "view",
      "type": "function"
    },
    {
      "inputs": [
        {
          "internalType": "uint256",
          "name": "_requestId",
          "type": "uint256"
        },
        {
          "internalType": "uint256[]",
          "name": "_randomWords",
          "type": "uint256[]"
        }
      ],
      "name": "rawFulfillRandomWords",
      "outputs": [],
      "stateMutability": "nonpayable",
      "type": "function"
    },
    {
      "inputs": [],
      "name": "renounceOwnership",
      "outputs": [],
      "stateMutability": "nonpayable",
      "type": "function"
    },
    {
      "inputs": [],
      "name": "requestConfirmations",
      "outputs": [
        {
          "internalType": "uint16",
          "name": "",
          "type": "uint16"
        }
      ],
      "stateMutability": "view",
      "type": "function"
    },
    {
      "inputs": [
        {
          "internalType": "address",
          "name": "user",
          "type": "address"
        },
        {
          "internalType": "uint256",
          "name": "quantity",
          "type": "uint256"
        },
        {
          "internalType": "uint8",
          "name": "maxRarity",
          "type": "uint8"
        },
        {
          "internalType": "bytes32",
          "name": "commitment",
          "type": "bytes32"
        }
      ],
      "name": "requestRandomForUser",
      "outputs": [
        {
          "internalType": "uint256",
          "name": "requestId",
          "type": "uint256"
        }
      ],
      "stateMutability": "payable",
      "type": "function"
    },
    {
      "inputs": [
        {
          "internalType": "enum IVRFManager.RequestType",
          "name": "requestType",
          "type": "uint8"
        },
        {
          "internalType": "uint32",
          "name": "numWords",
          "type": "uint32"
        },
        {
          "internalType": "bytes",
          "name": "data",
          "type": "bytes"
        }
      ],
      "name": "requestRandomness",
      "outputs": [
        {
          "internalType": "uint256",
          "name": "requestId",
          "type": "uint256"
        }
      ],
      "stateMutability": "payable",
      "type": "function"
    },
    {
      "inputs": [
        {
          "internalType": "uint256",
          "name": "requestId",
          "type": "uint256"
        }
      ],
      "name": "requests",
      "outputs": [
        {
          "components": [
            {
              "internalType": "address",
              "name": "requester",
              "type": "address"
            },
            {
              "internalType": "enum IVRFManager.RequestType",
              "name": "requestType",
              "type": "uint8"
            },
            {
              "internalType": "bytes",
              "name": "data",
              "type": "bytes"
            },
            {
              "internalType": "bool",
              "name": "fulfilled",
              "type": "bool"
            },
            {
              "internalType": "uint256[]",
              "name": "randomWords",
              "type": "uint256[]"
            }
          ],
          "internalType": "struct IVRFManager.RandomRequest",
          "name": "",
          "type": "tuple"
        }
      ],
      "stateMutability": "view",
      "type": "function"
    },
    {
      "inputs": [
        {
          "internalType": "address",
          "name": "_contract",
          "type": "address"
        },
        {
          "internalType": "bool",
          "name": "_authorized",
          "type": "bool"
        }
      ],
      "name": "setAuthorizedContract",
      "outputs": [],
      "stateMutability": "nonpayable",
      "type": "function"
    },
    {
      "inputs": [
        {
          "internalType": "uint32",
          "name": "_limit",
          "type": "uint32"
        }
      ],
      "name": "setCallbackGasLimit",
      "outputs": [],
      "stateMutability": "nonpayable",
      "type": "function"
    },
    {
      "inputs": [
        {
          "internalType": "uint256",
          "name": "_fee",
          "type": "uint256"
        }
      ],
      "name": "setPlatformFee",
      "outputs": [],
      "stateMutability": "nonpayable",
      "type": "function"
    },
    {
      "inputs": [
        {
          "internalType": "uint16",
          "name": "_confirmations",
          "type": "uint16"
        }
      ],
      "name": "setRequestConfirmations",
      "outputs": [],
      "stateMutability": "nonpayable",
      "type": "function"
    },
    {
      "inputs": [
        {
          "internalType": "uint256",
          "name": "_price",
          "type": "uint256"
        }
      ],
      "name": "setVrfRequestPrice",
      "outputs": [],
      "stateMutability": "nonpayable",
      "type": "function"
    },
    {
      "inputs": [
        {
          "internalType": "address",
          "name": "newOwner",
          "type": "address"
        }
      ],
      "name": "transferOwnership",
      "outputs": [],
      "stateMutability": "nonpayable",
      "type": "function"
    },
    {
      "inputs": [
        {
          "internalType": "address",
          "name": "",
          "type": "address"
        },
        {
          "internalType": "uint256",
          "name": "",
          "type": "uint256"
        }
      ],
      "name": "userRandomWords",
      "outputs": [
        {
          "internalType": "uint256",
          "name": "",
          "type": "uint256"
        }
      ],
      "stateMutability": "view",
      "type": "function"
    },
    {
      "inputs": [
        {
          "internalType": "address",
          "name": "",
          "type": "address"
        }
      ],
      "name": "userToRequestId",
      "outputs": [
        {
          "internalType": "uint256",
          "name": "",
          "type": "uint256"
        }
      ],
      "stateMutability": "view",
      "type": "function"
    },
    {
      "inputs": [],
      "name": "vrfRequestPrice",
      "outputs": [
        {
          "internalType": "uint256",
          "name": "",
          "type": "uint256"
        }
      ],
      "stateMutability": "view",
      "type": "function"
    },
    {
      "inputs": [],
      "name": "withdrawBNB",
      "outputs": [],
      "stateMutability": "nonpayable",
      "type": "function"
    },
    {
      "stateMutability": "payable",
      "type": "receive"
    }
  ],
  "bytecode": "0x60c080604052346200017e5762001ed1803803809162000020828562000183565b83396001600160a01b039182916200003c9190810190620001bd565b16604051630711a57d60e21b8152602081600481855afa8015620001725783916000916200013d575b501660805260a052331562000124576000543360018060a01b0319821617600055604051913391167f8be0079c531659141344cd1fd0a4f28419497f9722a3daafe3b4186f6b6457e0600080a36001805564030007a12065ffffffffffff196002541617600255660110d9316ec0006003556611c37937e08000600455611cf29081620001df8239608051816102f6015260a05181818161052b015281816106a601528181610c1701528181610e5a0152818161135b0152611aa10152f35b604051631e4fbdf760e01b815260006004820152602490fd5b62000163915060203d81116200016a575b6200015a818362000183565b810190620001bd565b3862000065565b503d6200014e565b6040513d6000823e3d90fd5b600080fd5b601f909101601f19168101906001600160401b03821190821017620001a757604052565b634e487b7160e01b600052604160045260246000fd5b908160209103126200017e57516001600160a01b03811681036200017e579056fe608080604052600436101561001d575b50361561001b57600080fd5b005b600090813560e01c90816312065fe0146117235750806312e8e2c3146116d55780631d111d131461165e5780631fe543e3146112d357806324f74697146112af57806326232a2e146112915780634c52b16c14610d975780635681dbe914610d6557806367561d9314610cf6578063715018a614610c9c5780637ae316d014610bd257806381d12c5814610a7257806386ac73f61461061f57806387fe97e4146101a65780638824f5a7146105d35780638c46877e146105815780638da5cb5b1461055a5780639ed0868d14610515578063a4eb718c146104d4578063ab63e48314610486578063b0fb162f14610462578063d35db10d14610429578063d5b9221b146103fe578063d8a4676f14610325578063e76d5168146102e0578063f2fa739214610254578063f2fde38b146101c4578063fcfa2217146101a65763fe9fbb800361000f57346101a35760203660031901126101a35760209060ff906040906001600160a01b0361018f6117c9565b168152600684522054166040519015158152f35b80fd5b50346101a357806003193601126101a3576020600454604051908152f35b50346101a35760203660031901126101a3576101de6117c9565b6101e6611892565b6001600160a01b0390811690811561023b57600054826bffffffffffffffffffffffff60a01b821617600055167f8be0079c531659141344cd1fd0a4f28419497f9722a3daafe3b4186f6b6457e0600080a380f35b604051631e4fbdf760e01b815260048101849052602490fd5b50346101a35760403660031901126101a35761026e6117c9565b60243590811515908183036102dc577f2c59b8f31260880424e870332281eba93ddfef67e37d699cebe5a7ba89f7a8a6916102d26020926102ad611892565b60018060a01b03169485875260068452604087209060ff801983541691151516179055565b604051908152a280f35b8380fd5b50346101a357806003193601126101a3576040517f00000000000000000000000000000000000000000000000000000000000000006001600160a01b03168152602090f35b50346101a357602090816003193601126101a3579060043582526005815260408220906040516103548161173d565b82546001600160a01b03811682526103749060a01c60ff168383016118be565b600193610382858501611904565b6040830152600360ff60028601541694606084019515158652019060405195868588968554928381520194845280842093905b8282106103e65787898160808a6103ce838c03846117a7565b01525115156103e260405192839283611813565b0390f35b845486528997509485019493830193908301906103b5565b50346101a35760203660031901126101a35760209060ff906040906001600160a01b0361018f6117c9565b50346101a35760203660031901126101a3576020906040906001600160a01b036104516117c9565b168152600783522054604051908152f35b50346101a357806003193601126101a357602060025461ffff60405191831c168152f35b50346101a35760203660031901126101a3577fdef0b3e1ef5e27c284a9888d216f57fb09944d106d73a9a6962a84704ca1807960206004356104c6611892565b80600455604051908152a180f35b50346101a35760203660031901126101a35760043563ffffffff8116809103610510576104ff611892565b63ffffffff19600254161760025580f35b600080fd5b50346101a357806003193601126101a3576040517f00000000000000000000000000000000000000000000000000000000000000006001600160a01b03168152602090f35b50346101a357806003193601126101a357546040516001600160a01b039091168152602090f35b50346101a35760403660031901126101a35761059b6117c9565b6001600160a01b03168152600860205260408120805460243591908210156105cf5782526020918290200154604051908152f35b8280fd5b50346101a35760203660031901126101a35760043561ffff8116810361061b576105fb611892565b65ffff000000006002549160201b169065ffff0000000019161760025580f35b5080fd5b5060803660031901126101a3576106346117c9565b602435906044359160ff831680930361051057338452600660205261065f60ff6040862054166119aa565b610667611bac565b6002546040516313c34b7f60e01b815263ffffffff808316600483018190529084166024830181905290946001600160a01b03939092916020836044817f000000000000000000000000000000000000000000000000000000000000000089165afa928315610a67578993610a31575b506106e861071e93600354906119e7565b966106f588341015611a0a565b604051600160f81b6020820152600181529261ffff906107148561176f565b60201c1690611a6d565b5094826040519216938460208401526040830152606082015260643560808201526080815261074c8161173d565b604051916107598361178b565b868352604051916107698361173d565b3383526020830188815260408401918252606084019289845260808501958652888a52600560205260408a20945116845491516004811015610a1d576001600160a81b03199092161760a09190911b60ff60a01b161783555180519067ffffffffffffffff8211610a09576107e160018501546118ca565b601f81116109cb575b50602090601f83116001146109585791806003959492610839948c9261094d575b505060001982871b1c1916600191821b17908401555b511515600283019060ff801983541691151516179055565b0190519081519167ffffffffffffffff831161093957600160401b831161093957602090825484845580851061091f575b500190865260208620865b83811061090b5750505050835260076020528160408420558034116108d1575b60208260405160008152817fca93f1e54f3c66e2912d6bd1a268c4ce86b4ed8f63e77c73a8ea55d4a3a3f674843393a360018055604051908152f35b8280806108df819434611a60565b818115610902575b3390f1156108f55781610895565b50604051903d90823e3d90fd5b506108fc6108e7565b600190602084519401938184015501610875565b838952828920610933918101908601611a49565b3861086a565b634e487b7160e01b87526041600452602487fd5b01519050388061080b565b90600185018a5260208a20918a5b601f19851681106109b357509260039594926001926108399583601f1981161061099b575b505050811b016001840155610821565b015160001983891b60f8161c1916905538808061098b565b91926020600181928685015181550194019201610966565b6109f990600186018b5260208b20601f850160051c810191602086106109ff575b601f0160051c0190611a49565b386107ea565b90915081906109ec565b634e487b7160e01b89526041600452602489fd5b634e487b7160e01b8b52602160045260248bfd5b92506020833d602011610a5f575b81610a4c602093836117a7565b81010312610510579151916106e86106d7565b3d9150610a3f565b6040513d8b823e3d90fd5b50346101a357602090816003193601126101a35760606080604051610a968161173d565b8381528385820152826040820152838382015201526004358152600582526040812060405191610ac58361173d565b81546001600160a01b0380821685528585019391610ae99060a01c60ff16856118be565b600193610af7858401611904565b9060408701918252600360ff60028601541694606089019515158652019260405193848a825491828152019188528a882090885b818110610bbf5750505091610b6991610b4a86610b7b969503876117a7565b60808a01958652604051998b8b5251168a8a015251604089019061182f565b5160a0606088015260c0870190611852565b91511515608086015251848203601f190160a0860152805180835291860195908101925b828110610bac5785870386f35b8351875295810195928101928401610b9f565b82548452928c0192918a01918a01610b2b565b50346101a357806003193601126101a3576002546040516313c34b7f60e01b815263ffffffff9091166004820152600160248201526020816044816001600160a01b037f0000000000000000000000000000000000000000000000000000000000000000165afa918215610c905791610c5d575b6020610c5583600354906119e7565b604051908152f35b90506020813d8211610c88575b81610c77602093836117a7565b810103126105105751610c55610c46565b3d9150610c6a565b604051903d90823e3d90fd5b50346101a357806003193601126101a357610cb5611892565b600080546001600160a01b0319811682556001600160a01b03167f8be0079c531659141344cd1fd0a4f28419497f9722a3daafe3b4186f6b6457e08280a380f35b50346101a35760203660031901126101a357610d106117c9565b610d18611892565b60018060a01b0316808252600660205260408220600160ff198254161790557f2c59b8f31260880424e870332281eba93ddfef67e37d699cebe5a7ba89f7a8a6602060405160018152a280f35b50346101a35760203660031901126101a357610d87610d826117c9565b611bcf565b906103e260405192839283611813565b5060603660031901126101a3576004803510156101a35763ffffffff8060243516602435036105105767ffffffffffffffff6044351161061b5736602360443501121561061b5767ffffffffffffffff604435600401351161061b573660246044356004013560443501011161061b573382526006602052610e1f60ff6040842054166119aa565b610e27611bac565b6002546040516313c34b7f60e01b815263ffffffff838316811660048301526024803590911690820152906020826044817f00000000000000000000000000000000000000000000000000000000000000006001600160a01b03165afa918215611286578492611250575b50610ea3610ede92600354906119e7565b92610eb084341015611a0a565b604051600160f81b60208201526001815291610ecb8361176f565b6024359161ffff8260201c169116611a6d565b5090604051610eec8161178b565b83815260405190610efc8261173d565b338252610f0e600435602084016118be565b60405190610f2c60046044350135601f01601f1916602001836117a7565b604435600481013580845290602401602084013785602060443560040135840101526040830191825285606084015260808301528385526005602052604085209060018060a01b038351168254906020850151600481101561123c576001600160a81b03199092161760a09190911b60ff60a01b161782555180519067ffffffffffffffff821161093957610fc460018401546118ca565b601f8111611209575b50602090601f8311600114611198579180608094926003948a9261118d575b505060001982851b1c1916600191821b17908201555b61102160608501511515600283019060ff801983541691151516179055565b019101519081519167ffffffffffffffff831161117957600160401b831161117957602090825484845580851061115f575b500190855260208520855b83811061114b575050505060043515801561113f575b6110f2575b8034116110c5575b6020826040516110938160043561182f565b817fca93f1e54f3c66e2912d6bd1a268c4ce86b4ed8f63e77c73a8ea55d4a3a3f674843393a360018055604051908152f35b8280806110d3819434611a60565b8181156110e9575b3390f1156108f55781611081565b506108fc6110db565b60806044356004810135810103126105cf57602460443501356001600160a01b038116908190036102dc576064604435013560ff8116036105105783526007602052816040842055611079565b50600160043514611074565b60019060208451940193818401550161105e565b838852828820611173918101908601611a49565b38611053565b634e487b7160e01b86526041600452602486fd5b015190503880610fec565b906001840188526020882091885b601f19851681106111f15750926080949260019260039583601f198116106111d9575b505050811b016001820155611002565b015160001983871b60f8161c191690553880806111c9565b919260206001819286850151815501940192016111a6565b6112369060018501895260208920601f850160051c810191602086106109ff57601f0160051c0190611a49565b38610fcd565b634e487b7160e01b89526021600452602489fd5b91506020823d60201161127e575b8161126b602093836117a7565b8101031261051057905190610ea3610e92565b3d915061125e565b6040513d86823e3d90fd5b50346101a357806003193601126101a3576020600354604051908152f35b50346101a357806003193601126101a357602063ffffffff60025416604051908152f35b50346101a35760403660031901126101a357602490600435823567ffffffffffffffff8082116102dc57366023830112156102dc5781600401359080821161164b578160051b6040519360209361132c858401876117a7565b8552838501888193830101913683116116475789869101915b83831061163757506001600160a01b03939250507f0000000000000000000000000000000000000000000000000000000000000000831690503381900361161a5750858752600584526040872090600282019081549160ff83166115e2576001809360ff19161790556003830190875186811161156a57600160401b9283821161157d578b8154838355838b8282106115c7575b5050505082908c52888c20858d5b8481106115b557505050505060ff845460a01c1660048110156115a257838115918215611598575b50506114c5575b505050541690813b156114c157856040518093630a8cba3560e21b825287600483015260408a83015281838161144f604482018b6117df565b03925af1611497575b5050907f9f1a143e0ae48a733432a8f7f1c23bf13298022ac471e7a2557a400893298591916114916040519282849384528301906117df565b0390a280f35b81959295116114ae57604052929350833880611458565b634e487b7160e01b825260416004528582fd5b8580fd5b6114d0838501611904565b608081805181010312611590578781015190868216809203611594576060015160ff811603611590578a526008875260408a209088519287841161157d57831161156a578a8254848455848a82821061154f575b50505050908a52868a208a5b83811061153e575050611416565b825182820155918801918401611530565b83866115619552209182019101611a49565b8a38848a611524565b634e487b7160e01b8b5260416004528b8bfd5b634e487b7160e01b8c5260416004528c8cfd5b8a80fd5b8b80fd5b149050833861140f565b634e487b7160e01b8b5260216004528b8bfd5b8b8451940193818401550186906113e7565b83856115d99552209182019101611a49565b8b38838b6113d9565b60405162461bcd60e51b8152600481018890526011818d015270105b1c9958591e48199d5b199a5b1b1959607a1b6044820152606490fd5b88604491604051916345d498b760e11b8352336004840152820152fd5b8235815291810191869101611345565b8880fd5b634e487b7160e01b855260416004528585fd5b50346101a357806003193601126101a357611677611892565b47801561169b57815482918291829182916001600160a01b031682f115610c905780f35b60405162461bcd60e51b81526020600482015260126024820152714e6f20424e4220746f20776974686472617760701b6044820152606490fd5b50346101a35760203660031901126101a3577f45610d581145924dd7090a5017e5f2b1d6f42213bb2e95707ff86846bbfcb1ca6020600435611715611892565b80600355604051908152a180f35b90503461061b578160031936011261061b57602090478152f35b60a0810190811067ffffffffffffffff82111761175957604052565b634e487b7160e01b600052604160045260246000fd5b6040810190811067ffffffffffffffff82111761175957604052565b6020810190811067ffffffffffffffff82111761175957604052565b90601f8019910116810190811067ffffffffffffffff82111761175957604052565b600435906001600160a01b038216820361051057565b90815180825260208080930193019160005b8281106117ff575050505090565b8351855293810193928101926001016117f1565b60409061182c93921515815281602082015201906117df565b90565b90600482101561183c5752565b634e487b7160e01b600052602160045260246000fd5b919082519283825260005b84811061187e575050826000602080949584010152601f8019910116010190565b60208183018101518483018201520161185d565b6000546001600160a01b031633036118a657565b60405163118cdaa760e01b8152336004820152602490fd5b600482101561183c5752565b90600182811c921680156118fa575b60208310146118e457565b634e487b7160e01b600052602260045260246000fd5b91607f16916118d9565b9060405191826000825492611918846118ca565b9081845260019485811690816000146119875750600114611944575b5050611942925003836117a7565b565b9093915060005260209081600020936000915b81831061196f57505061194293508201013880611934565b85548884018501529485019487945091830191611957565b91505061194294506020925060ff191682840152151560051b8201013880611934565b156119b157565b60405162461bcd60e51b815260206004820152600e60248201526d139bdd08185d5d1a1bdc9a5e995960921b6044820152606490fd5b919082018092116119f457565b634e487b7160e01b600052601160045260246000fd5b15611a1157565b60405162461bcd60e51b815260206004820152601060248201526f496e73756666696369656e742066656560801b6044820152606490fd5b818110611a54575050565b60008155600101611a49565b919082039182116119f457565b6040516313c34b7f60e01b815263ffffffff8281166004830152841660248201529493909260209290916001600160a01b037f00000000000000000000000000000000000000000000000000000000000000001691908488604481865afa978815611b6b57600098611b77575b508785949392611b2561ffff93604051998a9788968795634e7e02c760e11b875263ffffffff8094166004880152166024860152166044840152608060648401526084830190611852565b03925af1908115611b6b57600091611b3f575b5090509190565b82813d8311611b64575b611b5381836117a7565b810103126101a35750518038611b38565b503d611b49565b6040513d6000823e3d90fd5b909293978582813d8311611ba5575b611b9081836117a7565b810103126101a357505196929161ffff611ada565b503d611b86565b600260015414611bbd576002600155565b604051633ee5aeb560e01b8152600490fd5b6001600160a01b03908116600090815260076020908152604080832054919493918015611ca2578395929193526005825282852092611c2860ff825193611c158561173d565b8654908116855260a01c168484016118be565b600195611c36878601611904565b82840152600360ff6002870154169560608501961515875201915196878589968554928381520194845280842093905b828210611c8a57505050505090611c818360809303846117a7565b01525115159190565b845486528a9750948501949383019390830190611c66565b50519350611cb190508361178b565b80835280368137919056fea264697066735822122078237c6071824cc5084f341acd9c6132d1522b73dc6af7cf0aeb5e5dcc9bece764736f6c63430008140033",
  "linkReferences": {},
  "deployedLinkReferences": {}
}